:030000000206668F
:0C066600787FE4F6D8FD7581070206AD30
:10004F00E4F5CAF5C9F5B2F5B11200031207D212E1
:04005F00074280FBD9
:0C00660041032F014103300141032E0132
:10000300759850438E40538EFE53890F758BF3754D
:0B0013008DFCC2ABD28ED2AFD2AC226B
:030023000203B520
:1003B500C0E0C0F0C083C082C0D075D000C000C00E
:0D03C50004C005C006C007209803020472A2
:1003D200900204E0900203F0900205E0900202F025
:1003E200900207E0900205F0A3E0900204F0900270
:1003F20016E475F0011207BCFE740225F0F5827452
:10040200003EF583E599F090032BE599F0E0FF902B
:10041200021BE0F0A3E06FF0900329E4F090021BCE
:10042200E0FEA3E0FF5401FD90032AF0EEC313FEA9
:10043200EF13FF90021BEEF0A3EFF0BD010C900250
:100442001BE064A0F0A3E06401F0900329E004F053
:10045200E0B408C990021BE0FCA3E0FDECFF9003AE
:100462002CF0EDA3F0900207F0900206EFF0C29894
:0304720030993688
:10047500C299900330E0702E90032FE0FF90032E79
:10048500E0C39F5013E0FF04F0741D2FF582E434A0
:1004950002F583E0F599800E90032FE4F090032E8A
:0604A50004F0900330F0AA
:1004AB00D007D006D005D004D000D0D0D082D083D6
:0504BB00D0F0D0E0329A
:10007200610000020000000000000000000000001B
:10008200000000000000000000000000000000006E
:10009200000000000000000000000000000000005E
:1000A200000000000000000000000000000000004E
:1000B200000000000000000000000000000000003E
:1000C200000000000000000000000000000000002E
:1000D200000000000000000000000000000000001E
:1000E200000000000000000000000000000000000E
:1000F20000000000000000000000000000000000FE
:1001020000000000000000000000000000000000ED
:1001120000000000000000000000000000000000DD
:1001220000000000000000000000000000000000CD
:1001320000000000000000000000000000000000BD
:1001420000000000000000000000000000000000AD
:10015200000000000000000000000000000000009D
:10016200000000000000000000000000000000008D
:100172000000000061000102000000000000000019
:10018200000000000000000000000000000000006D
:10019200000000000000000000000000000000005D
:1001A200000000000000000000000000000000004D
:1001B200000000000000000000000000000000003D
:1001C200000000000000000000000000000000002D
:1001D200000000000000000000000000000000001D
:1001E200000000000000000000000000000000000D
:1001F20000000000000000000000000000000000FD
:1002020000000000000000000000000000000000EC
:1002120000000000000000000000000000000000DC
:1002220000000000000000000000000000000000CC
:1002320000000000000000000000000000000000BC
:1002420000000000000000000000000000000000AC
:10025200000000000000000000000000000000009C
:10026200000000000000000000000000000000008C
:1002720000000000000000006100021D00000000FC
:10028200000000000000000000000000000000006C
:10029200000000000000000000000000000000005C
:1002A200000000000000000000000000000000004C
:1002B200000000000000000000000000000000003C
:1002C200000000000000000000000000000000002C
:1002D200000000000000000000000000000000001C
:1002E200000000000000000000000000000000000C
:1002F20000000000000000000000000000000000FC
:1003020000000000000000000000000000000000EB
:1003120000000000000000000000000000000000DB
:1003220000000000000000000000000000000000CB
:1003320000000000000000000000000000000000BB
:1003420000000000000000000000000000000000AB
:10035200000000000000000000000000000000009B
:10036200000000000000000000000000000000008B
:100372000000000000000000000000005402020023
:10038200000000000000000000000000000000006B
:100392000000004202160000420219000041031D43
:1003A2000042021BFFFF4102180041000000410011
:0203B200010048
:1007D200438E0443AF0475D7D075D68AD2AF438E09
:0207E2001022E3
:1005C200900320EBF0A3EAF0A3E9F0A3ECF0A3ED93
:0105D200F038
:1005D30074FF900327F0A3F0E4900325F0A3F090B9
:1005E3000323E0FEA3E0FFC3900326E09F900325CF
:1005F300E09E5066900320E0FBA3E0FAA3E0F990AD
:100603000325E0FEA3E0F5828E8312078FFF90039C
:1006130027E0F0A3E06FF0E4FDFC900328E0540131
:10062300FB900327E0C313F0A3E013F0AF03EF64E1
:1006330001700C900327E064A0F0A3E06401F00DC7
:10064300BD00010CED64084C70D0900326E004F06B
:10065300708D900325E004F08085900327E0FEA3CE
:02066300E0FFB6
:010665002272
:1004C000E4FFFEB2CD900216F0A3F0900002E0909F
:1004D000021DF0900003E090021EF0900007E0255E
:1004E000E090021FF090031EE4F0A37403F090026A
:1004F0001FE02403FDE433FC90031EE0FAA3E0FBBD
:10050000C39DEA9C5035900005E0FD7C00EB2DFD7D
:10051000EC3AFC74FF2DF58274003CF583E0FD7429
:100520001D2BF582E43402F583EDF090031FE00407
:10053000F070BB90031EE004F080B37B017A027977
:100540001D90021FE02403FDE433FC1205C290025B
:100550001FE02420F582E43402F583EFF0EEFF90F3
:10056000021FE02421F582E43402F583EFF09002CB
:100570001FE0240590032FF0900330E060FAE49030
:100580000330F090021DE0F599E490031EF0A3F013
:1005900090031EE0FEA3E0FFC3EE9401501C740222
:1005A0002FF582E43400F583E4F090031FE004F0BB
:1005B00070DE90031EE004F080D6E4900202F0A307
:0105C000F04A
:0105C1002217
:1007420090031DE06046E4F0900216E0FEA3E0FF95
:100752002401F58274003EF583E0FD900203E06D12
:10076200702A74002FF58274003EF583E0FF900238
:1007720002E0B50717900002E0B40109A3E024FDEE
:0D078200700A0204C0E4900216F0A3F022F9
:1006F200900216E0FCA3E0FDD39400EC9400403A93
:10070200900000E0FBED6B7001EC600D900216A30F
:10071200E0900000F0E4A3F022900001E0C3940313
:10072200501DE02FF0E0C39403401490031D7401A8
:0F073200F074FF90021BF0A3F022E4900000F09F
:010741002295
:0300630002002672
:10002600C0E0C083C082C0D075D000C003C004C089
:1000360005C0077F011206F2D007D005D004D00311
:09004600D0D0D082D083D0E0328A
:1006720002004FE493A3F8E493A34003F68001F24F
:1006820008DFF48029E493A3F85407240CC8C33389
:10069200C4540F4420C8834004F456800146F6DF58
:1006A200E4800B0102040810204080900066E47E82
:1006B200019360BCA3FF543F30E509541FFEE4934D
:1006C200A360010ECF54C025E060A840B8E493A314
:1006D200FAE493A3F8E493A3C8C582C8CAC583CA3F
:1006E200F0A3C8C582C8CAC583CADFE9DEE780BEF7
:0103B4000048
:10078F00BB010CE58229F582E5833AF583E022501F
:10079F0006E92582F8E622BBFE06E92582F8E22269
:0D07AF00E58229F582E5833AF583E4932283
:1007BC00A3F8E0C5F025F0F0E582158270021583F0
:0607CC00E0C838F0E8224D
:00000001FF
